{
  "_format": "hh-sol-artifact-1",
  "contractName": "GiftMe",
  "sourceName": "contracts/SendGift.sol",
  "abi": [
    {
      "anonymous": false,
      "inputs": [
        {
          "indexed": true,
          "internalType": "address",
          "name": "from",
          "type": "address"
        },
        {
          "indexed": false,
          "internalType": "uint256",
          "name": "timestamp",
          "type": "uint256"
        },
        {
          "indexed": false,
          "internalType": "string",
          "name": "message",
          "type": "string"
        },
        {
          "indexed": false,
          "internalType": "uint256",
          "name": "amount",
          "type": "uint256"
        }
      ],
      "name": "NewGift",
      "type": "event"
    },
    {
      "inputs": [],
      "name": "getAllGifts",
      "outputs": [
        {
          "components": [
            {
              "internalType": "address",
              "name": "sender",
              "type": "address"
            },
            {
              "internalType": "uint256",
              "name": "amount",
              "type": "uint256"
            },
            {
              "internalType": "string",
              "name": "message",
              "type": "string"
            },
            {
              "internalType": "uint256",
              "name": "timestamp",
              "type": "uint256"
            }
          ],
          "internalType": "struct GiftMe.Gift[]",
          "name": "",
          "type": "tuple[]"
        }
      ],
      "stateMutability": "view",
      "type": "function"
    },
    {
      "inputs": [],
      "name": "getTotalGift",
      "outputs": [
        {
          "internalType": "uint256",
          "name": "",
          "type": "uint256"
        }
      ],
      "stateMutability": "view",
      "type": "function"
    },
    {
      "inputs": [
        {
          "internalType": "string",
          "name": "_message",
          "type": "string"
        },
        {
          "internalType": "uint256",
          "name": "_amount",
          "type": "uint256"
        }
      ],
      "name": "sendGift",
      "outputs": [],
      "stateMutability": "payable",
      "type": "function"
    }
  ],
  "bytecode": "0x608060405234801561001057600080fd5b506109d5806100206000396000f3fe6080604052600436106100345760003560e01c80631874880f14610039578063d64147bf14610055578063fe5bc35914610080575b600080fd5b610053600480360381019061004e919061058d565b6100ab565b005b34801561006157600080fd5b5061006a6101f6565b60405161007791906107e6565b60405180910390f35b34801561008c57600080fd5b50610095610351565b6040516100a29190610817565b60405180910390f35b600260405180608001604052803373ffffffffffffffffffffffffffffffffffffffff16815260200183815260200184815260200142815250908060018154018082558091505060019003906000526020600020906004020160009091909190915060008201518160000160006101000a81548173ffffffffffffffffffffffffffffffffffffffff021916908373ffffffffffffffffffffffffffffffffffffffff16021790555060208201518160010155604082015181600201908051906020019061017a92919061035a565b5060608201518160030155505060016000808282546101999190610861565b925050819055503373ffffffffffffffffffffffffffffffffffffffff167f17ef4ec9642bc5509521bb739bc184aa5a6ec22b7b77f137e480688c97a5b1104284846040516101ea93929190610901565b60405180910390a25050565b60606002805480602002602001604051908101604052809291908181526020016000905b8282101561034857838290600052602060002090600402016040518060800160405290816000820160009054906101000a900473ffffffffffffffffffffffffffffffffffffffff1673ffffffffffffffffffffffffffffffffffffffff1673ffffffffffffffffffffffffffffffffffffffff168152602001600182015481526020016002820180546102ad9061096e565b80601f01602080910402602001604051908101604052809291908181526020018280546102d99061096e565b80156103265780601f106102fb57610100808354040283529160200191610326565b820191906000526020600020905b81548152906001019060200180831161030957829003601f168201915b505050505081526020016003820154815250508152602001906001019061021a565b50505050905090565b60008054905090565b8280546103669061096e565b90600052602060002090601f01602090048101928261038857600085556103cf565b82601f106103a157805160ff19168380011785556103cf565b828001600101855582156103cf579182015b828111156103ce5782518255916020019190600101906103b3565b5b5090506103dc91906103e0565b5090565b5b808211156103f95760008160009055506001016103e1565b5090565b6000604051905090565b600080fd5b600080fd5b600080fd5b600080fd5b6000601f19601f8301169050919050565b7f4e487b7100000000000000000000000000000000000000000000000000000000600052604160045260246000fd5b6104648261041b565b810181811067ffffffffffffffff821117156104835761048261042c565b5b80604052505050565b60006104966103fd565b90506104a2828261045b565b919050565b600067ffffffffffffffff8211156104c2576104c161042c565b5b6104cb8261041b565b9050602081019050919050565b82818337600083830152505050565b60006104fa6104f5846104a7565b61048c565b90508281526020810184848401111561051657610515610416565b5b6105218482856104d8565b509392505050565b600082601f83011261053e5761053d610411565b5b813561054e8482602086016104e7565b91505092915050565b6000819050919050565b61056a81610557565b811461057557600080fd5b50565b60008135905061058781610561565b92915050565b600080604083850312156105a4576105a3610407565b5b600083013567ffffffffffffffff8111156105c2576105c161040c565b5b6105ce85828601610529565b92505060206105df85828601610578565b9150509250929050565b600081519050919050565b600082825260208201905092915050565b6000819050602082019050919050565b600073ffffffffffffffffffffffffffffffffffffffff82169050919050565b600061064082610615565b9050919050565b61065081610635565b82525050565b61065f81610557565b82525050565b600081519050919050565b600082825260208201905092915050565b60005b8381101561069f578082015181840152602081019050610684565b838111156106ae576000848401525b50505050565b60006106bf82610665565b6106c98185610670565b93506106d9818560208601610681565b6106e28161041b565b840191505092915050565b60006080830160008301516107056000860182610647565b5060208301516107186020860182610656565b506040830151848203604086015261073082826106b4565b91505060608301516107456060860182610656565b508091505092915050565b600061075c83836106ed565b905092915050565b6000602082019050919050565b600061077c826105e9565b61078681856105f4565b93508360208202850161079885610605565b8060005b858110156107d457848403895281516107b58582610750565b94506107c083610764565b925060208a0199505060018101905061079c565b50829750879550505050505092915050565b600060208201905081810360008301526108008184610771565b905092915050565b61081181610557565b82525050565b600060208201905061082c6000830184610808565b92915050565b7f4e487b7100000000000000000000000000000000000000000000000000000000600052601160045260246000fd5b600061086c82610557565b915061087783610557565b9250827fffffffffffffffffffffffffffffffffffffffffffffffffffffffffffffffff038211156108ac576108ab610832565b5b828201905092915050565b600082825260208201905092915050565b60006108d382610665565b6108dd81856108b7565b93506108ed818560208601610681565b6108f68161041b565b840191505092915050565b60006060820190506109166000830186610808565b818103602083015261092881856108c8565b90506109376040830184610808565b949350505050565b7f4e487b7100000000000000000000000000000000000000000000000000000000600052602260045260246000fd5b6000600282049050600182168061098657607f821691505b6020821081036109995761099861093f565b5b5091905056fea2646970667358221220ff20d70c70c77bd3ccae2e6380aecae5f85a0757506c1b3ce2748a14327cd8e064736f6c634300080e0033",
  "linkReferences": {},
  "deployedLinkReferences": {}
}