{
  "_format": "hh-sol-artifact-1",
  "contractName": "GiftMe",
  "sourceName": "contracts/SendGift.sol",
  "abi": [
    {
      "inputs": [],
      "stateMutability": "nonpayable",
      "type": "constructor"
    },
    {
      "anonymous": false,
      "inputs": [
        {
          "indexed": true,
          "internalType": "address",
          "name": "from",
          "type": "address"
        },
        {
          "indexed": false,
          "internalType": "uint256",
          "name": "timestamp",
          "type": "uint256"
        },
        {
          "indexed": false,
          "internalType": "string",
          "name": "name",
          "type": "string"
        },
        {
          "indexed": false,
          "internalType": "string",
          "name": "message",
          "type": "string"
        },
        {
          "indexed": false,
          "internalType": "uint256",
          "name": "amount",
          "type": "uint256"
        }
      ],
      "name": "NewGift",
      "type": "event"
    },
    {
      "inputs": [],
      "name": "getAllGifts",
      "outputs": [
        {
          "components": [
            {
              "internalType": "address",
              "name": "from",
              "type": "address"
            },
            {
              "internalType": "string",
              "name": "message",
              "type": "string"
            },
            {
              "internalType": "string",
              "name": "name",
              "type": "string"
            },
            {
              "internalType": "uint256",
              "name": "amount",
              "type": "uint256"
            },
            {
              "internalType": "uint256",
              "name": "timestamp",
              "type": "uint256"
            }
          ],
          "internalType": "struct GiftMe.Gift[]",
          "name": "",
          "type": "tuple[]"
        }
      ],
      "stateMutability": "view",
      "type": "function"
    },
    {
      "inputs": [],
      "name": "getTotalGift",
      "outputs": [
        {
          "internalType": "uint256",
          "name": "",
          "type": "uint256"
        }
      ],
      "stateMutability": "view",
      "type": "function"
    },
    {
      "inputs": [
        {
          "internalType": "string",
          "name": "_message",
          "type": "string"
        },
        {
          "internalType": "string",
          "name": "_name",
          "type": "string"
        },
        {
          "internalType": "uint256",
          "name": "_amount",
          "type": "uint256"
        }
      ],
      "name": "sendGift",
      "outputs": [],
      "stateMutability": "payable",
      "type": "function"
    },
    {
      "inputs": [],
      "name": "withdrawTips",
      "outputs": [],
      "stateMutability": "nonpayable",
      "type": "function"
    }
  ],
  "bytecode": "0x608060405234801561001057600080fd5b5033600160006101000a81548173ffffffffffffffffffffffffffffffffffffffff021916908373ffffffffffffffffffffffffffffffffffffffff160217905550610b6f806100616000396000f3fe60806040526004361061003f5760003560e01c80633183aeff146100445780633aaa74b214610060578063d64147bf14610077578063fe5bc359146100a2575b600080fd5b61005e600480360381019061005991906106c9565b6100cd565b005b34801561006c57600080fd5b5061007561023e565b005b34801561008357600080fd5b5061008c6102a0565b604051610099919061096b565b60405180910390f35b3480156100ae57600080fd5b506100b761048d565b6040516100c4919061099c565b60405180910390f35b60026040518060a001604052803373ffffffffffffffffffffffffffffffffffffffff16815260200185815260200184815260200183815260200142815250908060018154018082558091505060019003906000526020600020906005020160009091909190915060008201518160000160006101000a81548173ffffffffffffffffffffffffffffffffffffffff021916908373ffffffffffffffffffffffffffffffffffffffff1602179055506020820151816001019080519060200190610198929190610496565b5060408201518160020190805190602001906101b5929190610496565b506060820151816003015560808201518160040155505060016000808282546101de91906109e6565b925050819055503373ffffffffffffffffffffffffffffffffffffffff167ff66f9bb5cd46aafb52fa9867f43930b4dd627f01bddb96fc6243bc07f006114b428486856040516102319493929190610a86565b60405180910390a2505050565b600160009054906101000a900473ffffffffffffffffffffffffffffffffffffffff1673ffffffffffffffffffffffffffffffffffffffff166108fc479081150290604051600060405180830381858888f1935050505061029e57600080fd5b565b60606002805480602002602001604051908101604052809291908181526020016000905b8282101561048457838290600052602060002090600502016040518060a00160405290816000820160009054906101000a900473ffffffffffffffffffffffffffffffffffffffff1673ffffffffffffffffffffffffffffffffffffffff1673ffffffffffffffffffffffffffffffffffffffff16815260200160018201805461034d90610b08565b80601f016020809104026020016040519081016040528092919081815260200182805461037990610b08565b80156103c65780601f1061039b576101008083540402835291602001916103c6565b820191906000526020600020905b8154815290600101906020018083116103a957829003601f168201915b505050505081526020016002820180546103df90610b08565b80601f016020809104026020016040519081016040528092919081815260200182805461040b90610b08565b80156104585780601f1061042d57610100808354040283529160200191610458565b820191906000526020600020905b81548152906001019060200180831161043b57829003601f168201915b5050505050815260200160038201548152602001600482015481525050815260200190600101906102c4565b50505050905090565b60008054905090565b8280546104a290610b08565b90600052602060002090601f0160209004810192826104c4576000855561050b565b82601f106104dd57805160ff191683800117855561050b565b8280016001018555821561050b579182015b8281111561050a5782518255916020019190600101906104ef565b5b509050610518919061051c565b5090565b5b8082111561053557600081600090555060010161051d565b5090565b6000604051905090565b600080fd5b600080fd5b600080fd5b600080fd5b6000601f19601f8301169050919050565b7f4e487b7100000000000000000000000000000000000000000000000000000000600052604160045260246000fd5b6105a082610557565b810181811067ffffffffffffffff821117156105bf576105be610568565b5b80604052505050565b60006105d2610539565b90506105de8282610597565b919050565b600067ffffffffffffffff8211156105fe576105fd610568565b5b61060782610557565b9050602081019050919050565b82818337600083830152505050565b6000610636610631846105e3565b6105c8565b90508281526020810184848401111561065257610651610552565b5b61065d848285610614565b509392505050565b600082601f83011261067a5761067961054d565b5b813561068a848260208601610623565b91505092915050565b6000819050919050565b6106a681610693565b81146106b157600080fd5b50565b6000813590506106c38161069d565b92915050565b6000806000606084860312156106e2576106e1610543565b5b600084013567ffffffffffffffff811115610700576106ff610548565b5b61070c86828701610665565b935050602084013567ffffffffffffffff81111561072d5761072c610548565b5b61073986828701610665565b925050604061074a868287016106b4565b9150509250925092565b600081519050919050565b600082825260208201905092915050565b6000819050602082019050919050565b600073ffffffffffffffffffffffffffffffffffffffff82169050919050565b60006107ab82610780565b9050919050565b6107bb816107a0565b82525050565b600081519050919050565b600082825260208201905092915050565b60005b838110156107fb5780820151818401526020810190506107e0565b8381111561080a576000848401525b50505050565b600061081b826107c1565b61082581856107cc565b93506108358185602086016107dd565b61083e81610557565b840191505092915050565b61085281610693565b82525050565b600060a08301600083015161087060008601826107b2565b50602083015184820360208601526108888282610810565b915050604083015184820360408601526108a28282610810565b91505060608301516108b76060860182610849565b5060808301516108ca6080860182610849565b508091505092915050565b60006108e18383610858565b905092915050565b6000602082019050919050565b600061090182610754565b61090b818561075f565b93508360208202850161091d85610770565b8060005b85811015610959578484038952815161093a85826108d5565b9450610945836108e9565b925060208a01995050600181019050610921565b50829750879550505050505092915050565b6000602082019050818103600083015261098581846108f6565b905092915050565b61099681610693565b82525050565b60006020820190506109b1600083018461098d565b92915050565b7f4e487b7100000000000000000000000000000000000000000000000000000000600052601160045260246000fd5b60006109f182610693565b91506109fc83610693565b9250827fffffffffffffffffffffffffffffffffffffffffffffffffffffffffffffffff03821115610a3157610a306109b7565b5b828201905092915050565b600082825260208201905092915050565b6000610a58826107c1565b610a628185610a3c565b9350610a728185602086016107dd565b610a7b81610557565b840191505092915050565b6000608082019050610a9b600083018761098d565b8181036020830152610aad8186610a4d565b90508181036040830152610ac18185610a4d565b9050610ad0606083018461098d565b95945050505050565b7f4e487b7100000000000000000000000000000000000000000000000000000000600052602260045260246000fd5b60006002820490506001821680610b2057607f821691505b602082108103610b3357610b32610ad9565b5b5091905056fea26469706673582212203370ea4a23ac82f58518440e0720245801a0740887eb892b5d62a3743df909c364736f6c634300080e0033",
  "linkReferences": {},
  "deployedLinkReferences": {}
}