{
  "_format": "hh-sol-artifact-1",
  "contractName": "GiftMe",
  "sourceName": "contracts/SendGift.sol",
  "abi": [
    {
      "inputs": [],
      "stateMutability": "nonpayable",
      "type": "constructor"
    },
    {
      "anonymous": false,
      "inputs": [
        {
          "indexed": true,
          "internalType": "address",
          "name": "from",
          "type": "address"
        },
        {
          "indexed": false,
          "internalType": "uint256",
          "name": "timestamp",
          "type": "uint256"
        },
        {
          "indexed": false,
          "internalType": "string",
          "name": "name",
          "type": "string"
        },
        {
          "indexed": false,
          "internalType": "string",
          "name": "message",
          "type": "string"
        }
      ],
      "name": "NewGift",
      "type": "event"
    },
    {
      "inputs": [],
      "name": "getAllGifts",
      "outputs": [
        {
          "components": [
            {
              "internalType": "address",
              "name": "from",
              "type": "address"
            },
            {
              "internalType": "string",
              "name": "message",
              "type": "string"
            },
            {
              "internalType": "string",
              "name": "name",
              "type": "string"
            },
            {
              "internalType": "uint256",
              "name": "timestamp",
              "type": "uint256"
            }
          ],
          "internalType": "struct GiftMe.Gift[]",
          "name": "",
          "type": "tuple[]"
        }
      ],
      "stateMutability": "view",
      "type": "function"
    },
    {
      "inputs": [],
      "name": "getTotalGift",
      "outputs": [
        {
          "internalType": "uint256",
          "name": "",
          "type": "uint256"
        }
      ],
      "stateMutability": "view",
      "type": "function"
    },
    {
      "inputs": [
        {
          "internalType": "string",
          "name": "_message",
          "type": "string"
        },
        {
          "internalType": "string",
          "name": "_name",
          "type": "string"
        }
      ],
      "name": "sendGift",
      "outputs": [],
      "stateMutability": "payable",
      "type": "function"
    },
    {
      "inputs": [],
      "name": "withdrawTips",
      "outputs": [],
      "stateMutability": "nonpayable",
      "type": "function"
    }
  ],
  "bytecode": "0x608060405234801561001057600080fd5b5033600260006101000a81548173ffffffffffffffffffffffffffffffffffffffff021916908373ffffffffffffffffffffffffffffffffffffffff160217905550610af2806100616000396000f3fe60806040526004361061003f5760003560e01c80633aaa74b214610044578063d64147bf1461005b578063f04216ac14610086578063fe5bc359146100a2575b600080fd5b34801561005057600080fd5b506100596100cd565b005b34801561006757600080fd5b5061007061012f565b60405161007d919061073b565b60405180910390f35b6100a0600480360381019061009b91906108a6565b610312565b005b3480156100ae57600080fd5b506100b7610470565b6040516100c4919061092d565b60405180910390f35b600260009054906101000a900473ffffffffffffffffffffffffffffffffffffffff1673ffffffffffffffffffffffffffffffffffffffff166108fc479081150290604051600060405180830381858888f1935050505061012d57600080fd5b565b60606003805480602002602001604051908101604052809291908181526020016000905b8282101561030957838290600052602060002090600402016040518060800160405290816000820160009054906101000a900473ffffffffffffffffffffffffffffffffffffffff1673ffffffffffffffffffffffffffffffffffffffff1673ffffffffffffffffffffffffffffffffffffffff1681526020016001820180546101dc90610977565b80601f016020809104026020016040519081016040528092919081815260200182805461020890610977565b80156102555780601f1061022a57610100808354040283529160200191610255565b820191906000526020600020905b81548152906001019060200180831161023857829003601f168201915b5050505050815260200160028201805461026e90610977565b80601f016020809104026020016040519081016040528092919081815260200182805461029a90610977565b80156102e75780601f106102bc576101008083540402835291602001916102e7565b820191906000526020600020905b8154815290600101906020018083116102ca57829003601f168201915b5050505050815260200160038201548152505081526020019060010190610153565b50505050905090565b600360405180608001604052803373ffffffffffffffffffffffffffffffffffffffff16815260200184815260200183815260200142815250908060018154018082558091505060019003906000526020600020906004020160009091909190915060008201518160000160006101000a81548173ffffffffffffffffffffffffffffffffffffffff021916908373ffffffffffffffffffffffffffffffffffffffff16021790555060208201518160010190805190602001906103d7929190610479565b5060408201518160020190805190602001906103f4929190610479565b50606082015181600301555050600160008082825461041391906109d7565b925050819055503373ffffffffffffffffffffffffffffffffffffffff167f481c73805cc8dd7af61a3885a1a056df31212e605f021ad8afbd4caaff7438d742838560405161046493929190610a77565b60405180910390a25050565b60008054905090565b82805461048590610977565b90600052602060002090601f0160209004810192826104a757600085556104ee565b82601f106104c057805160ff19168380011785556104ee565b828001600101855582156104ee579182015b828111156104ed5782518255916020019190600101906104d2565b5b5090506104fb91906104ff565b5090565b5b80821115610518576000816000905550600101610500565b5090565b600081519050919050565b600082825260208201905092915050565b6000819050602082019050919050565b600073ffffffffffffffffffffffffffffffffffffffff82169050919050565b600061057382610548565b9050919050565b61058381610568565b82525050565b600081519050919050565b600082825260208201905092915050565b60005b838110156105c35780820151818401526020810190506105a8565b838111156105d2576000848401525b50505050565b6000601f19601f8301169050919050565b60006105f482610589565b6105fe8185610594565b935061060e8185602086016105a5565b610617816105d8565b840191505092915050565b6000819050919050565b61063581610622565b82525050565b6000608083016000830151610653600086018261057a565b506020830151848203602086015261066b82826105e9565b9150506040830151848203604086015261068582826105e9565b915050606083015161069a606086018261062c565b508091505092915050565b60006106b1838361063b565b905092915050565b6000602082019050919050565b60006106d18261051c565b6106db8185610527565b9350836020820285016106ed85610538565b8060005b85811015610729578484038952815161070a85826106a5565b9450610715836106b9565b925060208a019950506001810190506106f1565b50829750879550505050505092915050565b6000602082019050818103600083015261075581846106c6565b905092915050565b6000604051905090565b600080fd5b600080fd5b600080fd5b600080fd5b7f4e487b7100000000000000000000000000000000000000000000000000000000600052604160045260246000fd5b6107b3826105d8565b810181811067ffffffffffffffff821117156107d2576107d161077b565b5b80604052505050565b60006107e561075d565b90506107f182826107aa565b919050565b600067ffffffffffffffff8211156108115761081061077b565b5b61081a826105d8565b9050602081019050919050565b82818337600083830152505050565b6000610849610844846107f6565b6107db565b90508281526020810184848401111561086557610864610776565b5b610870848285610827565b509392505050565b600082601f83011261088d5761088c610771565b5b813561089d848260208601610836565b91505092915050565b600080604083850312156108bd576108bc610767565b5b600083013567ffffffffffffffff8111156108db576108da61076c565b5b6108e785828601610878565b925050602083013567ffffffffffffffff8111156109085761090761076c565b5b61091485828601610878565b9150509250929050565b61092781610622565b82525050565b6000602082019050610942600083018461091e565b92915050565b7f4e487b7100000000000000000000000000000000000000000000000000000000600052602260045260246000fd5b6000600282049050600182168061098f57607f821691505b6020821081036109a2576109a1610948565b5b50919050565b7f4e487b7100000000000000000000000000000000000000000000000000000000600052601160045260246000fd5b60006109e282610622565b91506109ed83610622565b9250827fffffffffffffffffffffffffffffffffffffffffffffffffffffffffffffffff03821115610a2257610a216109a8565b5b828201905092915050565b600082825260208201905092915050565b6000610a4982610589565b610a538185610a2d565b9350610a638185602086016105a5565b610a6c816105d8565b840191505092915050565b6000606082019050610a8c600083018661091e565b8181036020830152610a9e8185610a3e565b90508181036040830152610ab28184610a3e565b905094935050505056fea264697066735822122031f8b7183815a6de91a2b023836e106caeadbe21ffd0ea6ed7c4b577ce5a792e64736f6c634300080e0033",
  "linkReferences": {},
  "deployedLinkReferences": {}
}